:100000000C945A030C947A030C947A030C947A039C
:100010000C947A030C947A030C947A030C947A036C
:100020000C947A030C947A030C94F3100C947A03D6
:100030000C947A030C947A030C947A030C947A034C
:100040000C947A030C947A030C947A030C947A033C
:100050000C947A030C947A030C947A030C947A032C
:100060000C947A030C947A030C947A030C947A031C
:100070000C947A030C947A030C947A030C947A030C
:100080000C947A030C94F7140C947A030A007661AA
:100090006C3A20252E32660A006669656C6420730E
:1000A0007472656E6774683A2025662C20706561ED
:1000B0006B20737472656E6774683A2025662C2015
:1000C0007461726765742076656C3A2025660A0053
:1000D0004A6F794F532076302E322E342D524334CE
:1000E0000A002020202020202020206D656D6F72C6
:1000F000792066756C6C00686561702073697A653B
:100100003A2025752062797465730A005F5F6D611E
:100110006C6C6F635F686561705F656E64203D2025
:1001200025700A005F5F6D616C6C6F635F6865616D
:10013000705F7374617274203D2025700A007275BF
:100140006E6177617920636F64650052756E6E69C8
:100150006E6720756D61696E28292E2E2E0A00505B
:100160007265737320476F20746F207374617274AB
:10017000206F722053746F7020746F2077616974E0
:1001800020666F722052462E0A0046696E697368B7
:1001900065642075736574757028292E0A00527580
:1001A0006E6E696E672075736574757028292E2EC2
:1001B0002E0A000A526F756E6420656E6400736DBE
:1001C000617368206E756C6C206C6F636B00726578
:1001D0006C6561736520756E68656C64206C6F6317
:1001E0006B0072656C65617365206E756C6C206C5C
:1001F0006F636B0069735F68656C64206E756C6C0F
:10020000206C6F636B00646561646C6F636B206965
:100210006E2061637175697265202D2D2063616C9C
:100220006C65642066726F6D206B65726E656C2004
:10023000746872656164206F6E20756E61766169A5
:100240006C61626C65206C6F636B006163717569D2
:1002500072656420746F6F206D616E792074696DB2
:1002600065730061637175697265206E756C6C20D1
:100270006C6F636B00696E6974206E756C6C206CBA
:100280006F636B00496E6974206661696C3A202562
:10029000730A004861707079626F6172642076251C
:1002A000582E253032580A005541525430206F7074
:1002B000656E65642061742025640A004861707071
:1002C00079626F61726420696E69742073746172FF
:1002D0007465640A004861726477617265207665AE
:1002E0007273696F6E2025582E253032580A0042ED
:1002F0006F61726420494420253034580A00426FEF
:1003000061726420636F6E666967204F4B0A00421A
:10031000617474657279204F4B3A2025646D560ADA
:100320000046504741207625642E25640A00426F1E
:1003300061726420696E697420636F6D706C65749E
:10034000652E0A0046504741206661696C757265EA
:100350000042616420436F6E6669670020746872B2
:100360006561642028746964202564292027257329
:1003700027207374617475732025642072756E7301
:100380002025750A002074687265616420287469EC
:10039000642025642920756E616C6C6F63617465DF
:1003A000640A0044756D70696E67207468726561D7
:1003B00064207374617465733A0A002050432020EE
:1003C000203A20253038700A002053524547203A01
:1003D00020253032700A002053502020203A20255A
:1003E0003034700A002046502020203A2025303436
:1003F000700A00203C6F6D697474696E67207230FA
:100400002D7233313E0A0044756D70696E67206A43
:100410006D705F6275663A0A006F7574206F6620B2
:1004200074687265616473007363686564756C6594
:100430006420746872656164207468617420686106
:100440006420616C726561647920657869746564A3
:100450000065786974696E67206E6F7468696E678D
:1004600000737461636B206F766572666C6F7700E2
:1004700072657365727665642073706163653A2096
:10048000257020746F2025700A00737461636B748B
:100490006F703A2025700A00706320617420257007
:1004A0000A007370206F662027257327202869644F
:1004B000202564292069732025700A000A7374615D
:1004C000636B206F766572666C6F770A00535020FD
:1004D00061626F7665002869642025642920737441
:1004E00061636B205B25702C2570290A007468728B
:1004F000656164207461626C6520656E642061745E
:100500002025700A00746872656164207461626CF1
:10051000652073746172742061742025700A0075FF
:100520006E6B6E6F776E20696E7465727275707423
:10053000006469676974616C5F7265616400616E13
:10054000616C6F675F72656164006D63703330303A
:1005500038206661696C006D637033303038206616
:1005600061696C007570646174655F7069643A20DC
:100570006E6F20696E707574007570646174655F6C
:100580007069643A207069642064697361626C65A3
:100590006400696E69745F7069643A2070696420F0
:1005A0006E756C6C006E616E00696E660000407A5C
:1005B00010F35A00A0724E18090010A5D4E80000EC
:1005C000E87648170000E40B54020000CA9A3B008A
:1005D0000000E1F505000080969800000040420F01
:1005E000000000A08601000000102700000000E8C5
:1005F00003000000006400000000000A000000008A
:10060000000100000000002C76D888DC674F08232A
:10061000DFC1DFAE59E1B1B796E5E3E453C63AE690
:1006200051997696E8E6C28426EB898C9B62ED4070
:100630007C6FFCEFBC9C9F40F2BAA56FA5F49005BF
:100640005A2AF75C936B6CF9676DC11BFCE0E40DF3
:1006500047FEF520E6B500D0ED902E0300943577E7
:10066000050080841E080000204E0A000000C80C0F
:10067000333333330F986E12831141EF8D21148978
:100680003BE65516CFFEE6DB18D1844B381BF77CD2
:100690001D901DA4BBE424203284725E228100C917
:1006A000F124ECA1E53D276364696E6F7073757882
:1006B000585B000011241FBECFEFD0E1DEBFCDBFDD
:1006C00011E0A0E0B1E0E2E6FBE500E00BBF02C014
:1006D00007900D92AC3AB107D9F71BBE14E0ACEA13
:1006E000B1E001C01D92AB37B107E1F70E94D2091A
:1006F0000C94AF2D0C94DC1080E090E00895EF9204
:10070000FF920F931F937B018C0120E030E048ECB7
:1007100052EC0E94EA2A88232CF4EE24FF2408ECF1
:1007200012EC0EC0B701C80120E030E048EC52E402
:100730000E94392C181624F4EE24FF2408EC12E44D
:10074000B701C8011F910F91FF90EF90089580911C
:100750002202882361F08091280290912902A091C1
:100760002A02B0912B02BC01CD0190581EC06091AD
:1007700028027091290280912A0290912B020E94F6
:10078000562B9B01AC0188E691E0821B930B68E637
:1007900071E00E94382D845B9040AA2797FDA095B8
:1007A000BA2FBC01CD010E94892B089580912702A8
:1007B000882321F4E0E070E060E01AC0609110014D
:1007C00070911101809112019091130120E030E0AD
:1007D00040E05FEB0E943D2C2091B0013091B101CF
:1007E0004091B2015091B3010E94862AE62F692FF1
:1007F0002E2F372F482F562FB901CA01089508957B
:100800008F929F92AF92BF92CF92DF92EF92FF9220
:100810000F931F9384E592E04AE057ED63EA7BE390
:1008200000E010E020E030E068017901F6EDAF2E45
:10083000F3E0BF2EEEE68E2EE4E09E2E0E94FB1F1C
:10084000C0926402D0926502E0926602F092670262
:1008500081E0809375021F910F91FF90EF90DF90E0
:10086000CF90BF90AF909F908F9008958F929F925E
:10087000AF92BF92CF92DF92EF92FF920F931F93AE
:1008800080E392E040E050E060EC7FE300E010E0C5
:1008900020E030E068017901B7EAAB2EB3E0BB2E6F
:1008A000AEEE8A2EA7E09A2E0E94FB1FC092400255
:1008B000D0924102E0924202F092430281E08093A2
:1008C00051020E9400041F910F91FF90EF90DF9062
:1008D000CF90BF90AF909F908F900895EF92FF922E
:1008E0000F931F937B018C0100D000D000D08EE8C5
:1008F00090E0EDB7FEB792838183E382F4820583B3
:1009000016830E94A6128DB79EB706960FB6F8946E
:100910009EBF0FBE8DBFC801B70120E030E040E0B0
:1009200050E00E94EA2A8823A4F4D801C701B058F5
:1009300080930C0190930D01A0930E01B0930F01D1
:1009400090E080912202882309F491E090932202A2
:1009500008C0E0920C01F0920D0100930E0110937B
:100960000F011F910F91FF90EF9008956093AC01DC
:100970007093AD018093AE019093AF012DB73EB758
:100980002E5030400FB6F8943EBF0FBE2DBFEDB7CE
:10099000FEB7319629E930E0ADB7BEB712963C9369
:1009A0002E9311972091B0013091B1014091B20185
:1009B0005091B301228333834483558320911001E6
:1009C0003091110140911201509113012683378318
:1009D0004087518762877387848795870E94A61214
:1009E0002DB73EB7225F3F4F0FB6F8943EBF0FBE04
:1009F0002DBF08953F924F925F926F927F928F9298
:100A00009F92AF92BF92CF92DF92EF92FF920F939D
:100A10001F9320E030E040E752E42093AC01309394
:100A2000AD014093AE015093AF018DB79EB70E97C5
:100A30000FB6F8949EBF0FBE8DBFEDB7FEB73196CF
:100A400089E990E0ADB7BEB712969C938E9311974B
:100A50008091B0019091B101A091B201B091B30128
:100A600082839383A483B5838091100190911101B7
:100A7000A0911201B091130186839783A087B1875B
:100A800022873387448755870E94A612EDB7FEB7A9
:100A90003C960FB6F894FEBF0FBEEDBF8CE890E019
:100AA000928381830E94A6120F900F9080E392E0C0
:100AB00040E050E060EC7FE300E010E020E030E058
:100AC00068017901B7EAAB2EB3E0BB2EAEEE8A2EF9
:100AD000A7E09A2E0E94FB1FC0924002D0924102D2
:100AE000E0924202F0924302332433943092510256
:100AF00084E592E04AE057ED63EA7BE397018601E3
:100B0000F6EDAF2EF3E0BF2EEEE68E2EE4E09E2E45
:100B10000E94FB1FC0926402D0926502E0926602BE
:100B2000F0926702309275021F910F91FF90EF9043
:100B3000DF90CF90BF90AF909F908F907F906F90FD
:100B40005F904F903F9008950E94B60C6093110201
:100B50007093120280931302909314021092210258
:100B60000E943B138091000161E042E051E00E944D
:100B70009E136AE070E080E090E00E949C0F089570
:100B8000AF92BF92CF92DF92EF92FF920F931F939B
:100B90007B01AA2797FDA095BA2FBC01CD010E9429
:100BA000892B5B016C010027F7FC0095102FC80111
:100BB000B7010E94892B7B018C01C601B501A601FA
:100BC00095010E943D2C5B016C01C801B701A80191
:100BD00097010E943D2C9B01AC01C601B5010E940A
:100BE000862A0E94A42C1F910F91FF90EF90DF9016
:100BF000CF90BF90AF900895AF92BF92CF92DF9207
:100C0000EF92FF920F931F938091000161E042E009
:100C100051E00E949E136AE070E080E090E00E9444
:100C20009C0F8091000163E043E051E00E949E131D
:100C30008091000161E041E051E00E949E136AE072
:100C400070E080E090E00E949C0F8091000162E0E3
:100C500043E252E00E94C3139091230280E020916E
:100C6000240230E0822B932B90932602809325025E
:100C70008091000163E046E051E00E949E13809164
:100C8000000161E041E051E00E949E136AE070E0E3
:100C900080E090E00E949C0F8091000162E043E2BE
:100CA00052E00E94C3139091230280E0209124021D
:100CB00030E0822B932B9093200280931F0280912F
:100CC000000163E049E051E00E949E138091000121
:100CD00061E041E051E00E949E136AE070E080E034
:100CE00090E00E949C0F8091000162E043E252E09C
:100CF0000E94C3139091230280E06091240270E06F
:100D0000682B792B709353026093520280911F02DB
:100D1000909120020E94C005D62EC72EB82EA92E73
:100D2000862F9C2DAB2DBA2D8093B0019093B101ED
:100D3000A093B201B093B301E0901001F0901101C3
:100D400000911201109113016D2D7C2D8B2D9A2D88
:100D50009701A8010E94392C181624F4ED2CFC2CC4
:100D60000B2D1A2DC701D80180931001909311010A
:100D7000A0931201B0931301609125027091260295
:100D800080E090E00E94872B20E030E040E251E4D8
:100D90000E94EE2A7B018C01609328027093290245
:100DA00080932A0290932B0220E030E044E353E446
:100DB0000E94392C181684F4C801B70120E030E0F5
:100DC00044EB53E40E94852A609328027093290221
:100DD00080932A0290932B022091280230912902BD
:100DE00040912A0250912B02B901CA011F910F9123
:100DF000FF90EF90DF90CF90BF90AF900895DF927B
:100E0000EF92FF920F931F93CF93DF9310922702DD
:100E100081E0809322020E94A4050E94FA04DD244E
:100E2000D394C9E9D0E00E94FC0580912202E090B1
:100E30002802F090290200912A0210912B028823A7
:100E4000B9F0C801B70120E030E044EB52E40E9461
:100E5000392C181654F0C801B70120E030E044EBFB
:100E600052EC0E94EA2A8823CCF41092220216C087
:100E7000C801B70120E030E044EB52EC0E94392C6D
:100E8000181664F4C801B70120E030E044EB52E4E6
:100E90000E94EA2A882314F4D0922202E090B00142
:100EA000F090B1010091B2011091B301C801B701F6
:100EB00020E030E84BEB53E40E94EA2A88231CF43C
:100EC000109227020CC0C801B70120E030E04AEFC1
:100ED00053E40E94392C181614F4D092270284E5AA
:100EE00092E00E94EA2060910C0170910D018091C6
:100EF0000E0190910F0120E030E040E752E40E94A3
:100F00003D2C9B01AC012093AC013093AD0140938B
:100F1000AE015093AF012DB73EB72E5030400FB603
:100F2000F8943EBF0FBE2DBFEDB7FEB73196ADB7FB
:100F3000BEB71296DC93CE9311972091B0013091F9
:100F4000B1014091B2015091B301228333834483B4
:100F5000558320911001309111014091120150915F
:100F600013012683378340875187AC01CB01DA0117
:100F700082879387A487B5870E94A6122DB73EB7B4
:100F8000225F3F4F0FB6F8943EBF0FBE2DBF80E3E8
:100F900092E00E94EA2047CF60E070E00E94920950
:100FA000089581E060E070E00E94920980E060E0D6
:100FB00070E00E94920908950E94562B9B01AC019B
:100FC00081E0B9010E94920908950E94562B9B016D
:100FD000AC0180E0B9010E9492090895AF92BF92DE
:100FE000CF92DF92EF92FF920F931F935B016C0100
:100FF00080912702882351F40F2EF0E0AF2EF0E00D
:10100000BF2EF0E0CF2EF0E0DF2EF02D80912202F7
:10101000882309F46EC0C601B50120E030E044EB3E
:1010200052E40E94392C18160CF46DC0C601B501AB
:1010300020E030E044EB52EC0E94EA2A88230CF4D2
:1010400075C0C601B50120E030E040E05FE30E94DA
:101050003D2C2091AC013091AD014091AE015091F9
:10106000AF010E94862A7B018C0120E030E048EC31
:1010700052EC0E94EA2A88235CF40F2EF0E0EF2E57
:10108000F0E0FF2EF8EC0F2FF2EC1F2FF02D14C024
:10109000C801B70120E030E048EC52E40E94392C4E
:1010A000181654F40F2EF0E0EF2EF0E0FF2EF8ECBF
:1010B0000F2FF2E41F2FF02DC801B7010E94562B0D
:1010C0009B01AC0180E0B9010E949209C601B50103
:1010D00020E030E040E05FEB0E943D2C2091AC012D
:1010E0003091AD014091AE015091AF010E94862A2E
:1010F0007DC0C601B50120E030E044EB52E40E941F
:10110000392C18164CF480E068E270E00E949209D5
:1011100081E068ED7FEF9BC0C601B50120E030E0C3
:1011200044EB52EC0E94EA2A88234CF480E068EDFC
:101130007FEF0E94920981E068E270E088C0C601FA
:10114000B50120E030E040E05FE30E943D2C2091BB
:10115000AC013091AD014091AE015091AF010E94C0
:10116000852A7B018C0120E030E048EC52EC0E94A3
:10117000EA2A88235CF40F2EF0E0EF2EF0E0FF2E39
:10118000F8EC0F2FF2EC1F2FF02D14C0C801B7019F
:1011900020E030E048EC52E40E94392C181654F458
:1011A0000F2EF0E0EF2EF0E0FF2EF8EC0F2FF2E420
:1011B0001F2FF02DC801B7010E94562B9B01AC01D7
:1011C00080E0B9010E949209C601B50120E030E03B
:1011D00040E05FEB0E943D2C2091AC013091AD01CD
:1011E0004091AE015091AF010E94852A7B018C0194
:1011F00020E030E048EC52EC0E94EA2A88235CF4BC
:101200000F2EF0E0EF2EF0E0FF2EF8EC0F2FF2ECB7
:101210001F2FF02D14C0C801B70120E030E048ECCA
:1012200052E40E94392C181654F40F2EF0E0EF2EE1
:10123000F0E0FF2EF8EC0F2FF2E41F2FF02DC80185
:10124000B7010E94562B9B01AC0181E0B9010E94BD
:1012500092091F910F91FF90EF90DF90CF90BF9078
:10126000AF9008951F93DF93CF93CDB7DEB7289744
:101270000FB6F894DEBF0FBECDBF182F86E792E001
:101280000E940B0BDE011396EFE1F1E086E0019086
:101290000D928150E1F7FE01E10FF11D638170E0D5
:1012A000685F7F4F80E090E0AE014F5F5F4F0E942C
:1012B000CB1686E792E00E94DC0A89819A81289603
:1012C0000FB6F894DEBF0FBECDBFCF91DF911F9157
:1012D00008950E943209A0E0B0E0BC01CD010E9457
:1012E000872B28E431EE40E851E40E943D2C0E9417
:1012F0005B2BCB010895FF920F931F93F82E06E707
:1013000012E0C8010E940B0BFF0CEF2DF0E0E05043
:10131000FF4E83E08083C8010E94DC0A1F910F9179
:10132000FF9008951F93CF93DF93182FEB0186E76B
:1013300092E00E940B0B110F1C161D0634F4E12FD6
:10134000F0E0E050FF4E81E007C0E12FF0E0209791
:1013500029F0E050FF4E82E0808303C0E050FF4E52
:101360001082E12FF0E0EF5FFE4EBE01D7FF03C019
:10137000709561957F4F608386E792E00E94DC0A5A
:10138000DF91CF911F91089586E792E064E171E0CB
:101390000E94FE0A08958093B501089581E080932C
:1013A000B40108958091B6019091B701892B19F08D
:1013B0008EE391E04BC083E897E09093AB0180937C
:1013C000AA010E94A30B00D000D084E291E0EDB707
:1013D000FEB7928381838091A8019091A9019483A3
:1013E00083830E94A6128CE091E0EDB7FEB7928352
:1013F00081838091AA019091AB01948383830E94A1
:10140000A61287EF90E0EDB7FEB7928381838091BB
:10141000AA019091AB012091A8013091A901821BF2
:10142000930B948383830E94A6120F900F900F90CA
:101430000F902091A8013091A9018091AA0190916B
:10144000AB012817390720F082EE90E00E948D0C46
:1014500000D080ED90E0EDB7FEB7928381830E94CB
:10146000A6120F900F900E94840E8AE49AE060E02A
:1014700071E040E025E231E00E94170E0E94551C09
:101480000E94871002C00E94400F8091B4018823FF
:10149000D1F3089500D08EE991E0EDB7FEB79283C5
:1014A00081830E94A6120F900F900E947C0300D0AF
:1014B0008AE891E0EDB7FEB7928381830E94A6127D
:1014C0008FE591E0EDB7FEB7928381830E94A6126B
:1014D0000F900F900E947C1A892B11F40E94420AEF
:1014E00000D08BE491E0EDB7FEB7928381830E9438
:1014F000A6120F900F900E94FF06089500D083EB74
:1015000091E0EDB7FEB7928381830E94A6120F90FF
:101510000F900E94FD0DFC014FB74078F894508168
:10152000552349F0238134818091B6019091B70110
:101530002817390769F45F5F50838091B601909155
:10154000B701948383838FB7482B4FBF81E0089501
:101550008FB7482B4FBF80E00895FC01009721F41E
:101560008EEB91E00E948D0C8FB7F894108214825C
:1015700013829FB78078892B8FBF0895FC01009755
:1015800021F484EF91E00E948D0C2091B6013091FE
:10159000B701838194812817390719F020E030E0E2
:1015A00009C090E08081882309F491E081E09827C8
:1015B000292F30E0C90108951F93CF93DF93EC01E9
:1015C000009719F482EE91E008C01FB7F8940E94CA
:1015D000BE0A892B21F48EEC91E00E948D0C88814B
:1015E00081508883882311F41C821B828FB7107866
:1015F000182B1FBFDF91CF911F910895FC01009719
:1016000021F485E792E00E948D0C10827283618341
:10161000148213820895CF93DF93EC01009719F49D
:1016200083E692E005C088818F3F51F48BE492E01D
:101630000E948D0C0E94400F03C086E092E0F8CF1C
:101640002FB72078F8943881332349F04091B601C0
:101650005091B7018B819C818417950771F43F5F8E
:1016600038838091B6019091B7019C838B838FB7AB
:10167000282B2FBFDF91CF9108958FB7282B2FBF35
:10168000452BC1F6DACF0F931F93DF93CF93CDB7DE
:10169000DEB761970FB6F894DEBF0FBECDBFBC01B9
:1016A0008E010F5F1F4FC80141E150E00E94AF263D
:1016B000198A00D000D084E892E0EDB7FEB792839B
:1016C0008183148303830E94A6120F900F900F90C2
:1016D0000F90FFCF60E070E080E090E00E94AF17D5
:1016E0008AE090E065E172E00E9460170E94E618CF
:1016F000E5E1F2E020E030E081913827032E02940A
:10170000802D8F708327932F9025990F907E8927A6
:10171000902D9327907F9695032E000C991F369558
:10172000369536953F7139273227282F82E0ED31E3
:10173000F80711F740E0808191812817390709F4F3
:1017400041E0842F08950F931F930E94301180E091
:101750009BE40E94F71103E511E010937A040093D3
:10176000790400D000D088EA92E0ADB7BEB71296F7
:101770009C938E93119780E09BE414969C938E9398
:1017800013970E94A6120F900F908CEB92E0EDB78A
:10179000FEB7928381830E94A6120F900F900E9441
:1017A000C0190E940B1A0E94B3110E94C4090E9422
:1017B0007C191093780400937704109376040093B7
:1017C00075040E9487110E94DB100E946A0B882317
:1017D00021F481E593E00E94430B00D08EEF92E06C
:1017E000ADB7BEB712969C938E9311970E94A61226
:1017F000209115023091160200D000D0EDB7FEB74F
:10180000319685ED92E0ADB7BEB712969C938E935C
:101810001197328313823070358324830E94A6127D
:101820000F900F908FEE92E0EDB7FEB79283818319
:101830008091170290911802948383830E94A612CC
:10184000209115023091160200D0EDB7FEB7319607
:1018500083E992E0ADB7BEB712969C938E93119731
:10186000328313823070358324830E94A612EDB731
:10187000FEB736960FB6F894FEBF0FBEEDBF0E94BE
:101880009A1A00D000D02FE033E0ADB7BEB7129661
:101890003C932E93119714969C938E9313970E94CA
:1018A000A6120F900F900F900F9060911B027091F5
:1018B0001C0280E091E00E942D16882321F484E42C
:1018C00093E00E94430B2091FE113091FF1100D054
:1018D00000D000D0EDB7FEB7319681E293E0ADB70E
:1018E000BEB712969C938E931197228313823483F2
:1018F00015820E94A6120F900F900F900F908EE20B
:1019000093E0EDB7FEB7928381830E94A6121E98E2
:101910000F900F901F910F910895EC01F89480EDB6
:1019200093E00E94AD0A209711F09E0102C02AE2C6
:1019300031E000D000D08BE291E0EDB7FEB79283AA
:101940008183348323830E94A6120F900F900F90FF
:101950000F900E94FD0D83E085BD83E884BD86B7AE
:10196000806486BF87B7806487BF08958FB7F89477
:101970002091B8013091B9014091BA015091BB0159
:101980009FB78078892B8FBFB901CA010895EF9264
:10199000FF920F931F932FB7F8946091B801709145
:1019A000B9018091BA019091BB0144B53FB720784D
:1019B000232B2FBF242F30E02358304079010027FC
:1019C000F7FC0095102F2DE730E040E050E00E943A
:1019D000052DE60EF71E081F191F83E0EE0CFF1CF5
:1019E000001F111F8A95D1F7B701C8011F910F91F0
:1019F000FF90EF90089570E084ED9EEF689F900156
:101A0000699F300D789F300D11242954304FC90142
:101A100008950F931F938C0100D087E094E0EDB7F9
:101A2000FEB7928381830E94A61283EF93E0EDB705
:101A3000FEB7928381830E94A61200D000D085EE6B
:101A400093E0EDB7FEB792838183F8018089918995
:101A5000A0E0B0E0EDB7FEB783839483A583B6839F
:101A60000E94A61287ED93E0EDB7FEB792838183C3
:101A7000F80182899389A0E0B0E0EDB7FEB78383D7
:101A80009483A583B6830E94A61289EC93E0EDB7F8
:101A9000FEB792838183F801848990E0A0E0B0E0F2
:101AA000EDB7FEB783839483A583B6830E94A61205
:101AB0008BEB93E0EDB7FEB792838183F8018589C4
:101AC0009689A0E0B0E0EDB7FEB783839483A58349
:101AD000B6830E94A6128DB79EB706960FB6F894ED
:101AE0009EBF0FBE8DBF1F910F910895AF92BF9201
:101AF000CF92DF92FF920F931F93CF93DF9380EDEE
:101B000093E00E940B0BFFB6F89400D083EA93E0B9
:101B1000ADB7BEB712969C938E9311970E94A612F2
:101B200007E912E0C0E0D0E00F900F902CE5A22E64
:101B300023E0B22E95E8C92E93E0D92EF80120813A
:101B4000222399F400D000D0ADB7BEB71296DC9234
:101B5000CE9211971496DC93CE9313970E94A612FF
:101B60000F900F900F900F902EC0EDB7FEB73C97DF
:101B70000FB6F894FEBF0FBEEDBF3196ADB7BEB73E
:101B80001296BC92AE921197D383C283D8011C9651
:101B90008D919C911D97958384832683178212963D
:101BA0002D913D914D915C9115972087318742870A
:101BB00053870E94A612EDB7FEB73C960FB6F89475
:101BC000FEBF0FBEEDBF2196045D1F4FC730D1058C
:101BD00009F0B4CF8FB7F0E8FF22F82AFFBE80EDFE
:101BE00093E00E94DC0ADF91CF911F910F91FF904B
:101BF000DF90CF90BF90AF900895F8941092760246
:101C000010927A021092790280E00E947B0981E0B2
:101C10000E947B0982E00E947B0983E00E947B098D
:101C200084E00E947B0985E00E947B09FFCFDF935F
:101C3000CF9300D00F92CDB7DEB7AC016FB76B83F7
:101C4000F894E7E9F2E01A8219828081882361F032
:101C500089819A8101969A838983BC960797A9F70F
:101C600089E194E00E948D0C8CE290E0A981BA8118
:101C7000A89FF001A99FF00DB89FF00D1124E55821
:101C8000FD4F81E0848F31A720A7168E178E10A2FA
:101C900011A28CE291E0928F818F53A742A7CF01CE
:101CA0000E946E268CE290E0E981FA81E89FB00103
:101CB000E99F700DF89F700D112465587D4F2E2FF0
:101CC00030E084ED9EEFAC01249FC001259F900D74
:101CD000349F900D11248954904FDB0153969C93AF
:101CE0008E9352978FE89FE056969C938E935597CC
:101CF0009FB78B818078892B8FBF89810F900F9040
:101D00000F90CF91DF9108958F929F92AF92BF92E3
:101D1000CF92DF92EF92FF920F931F93DF93CF93B7
:101D20000F92CDB7DEB72FB72983F89400D000D03B
:101D300085E095E0ADB7BEB712969C938E93119750
:101D40000BE712E014961C930E9313970E94A612B1
:101D50008DEE94E0EDB7FEB7928381838FEA93E036
:101D6000948383830E94A612095E1F4F88249924BE
:101D700057EBE52E5FE0F52E0F900F900F900F9030
:101D800046EDA42E44E0B42E3CE2C32E31E0D32E27
:101D9000D80114968C92149715961C921597ED9273
:101DA000FC92F80117821086118612862DB73EB775
:101DB000285030400FB6F8943EBF0FBE2DBFEDB790
:101DC000FEB73196ADB7BEB71296BC92AE921197E0
:101DD00093828282F582E482C401809590959C0171
:101DE0002C9DC0012D9D900D3C9D900D112489547A
:101DF000904F978386830E94A6120894811C911CA1
:101E0000045D1F4F84ED9EEFE80EF91EADB7BEB71F
:101E100018960FB6F894BEBF0FBEADBFB7E08B16D5
:101E2000910409F0B5CF8FEA93E00E946E268FEF00
:101E300090E19093C2038093C10387E890E190936F
:101E4000C5038093C40383E085BD83E884BD86B762
:101E5000806486BF87B7806487BF9FB78981807899
:101E6000892B8FBF0F90CF91DF911F910F91FF9022
:101E7000EF90DF90CF90BF90AF909F908F9008959C
:101E8000DF93CF930F92CDB7DEB78FB78983F894E6
:101E90001F920F922F933F934F935F936F937F9374
:101EA0008F939F93AF93BF93EF93FF938091B6016E
:101EB0009091B701009721F00E946E26892B31F492
:101EC0008FEA93E061E070E00E948E26FF91EF912F
:101ED000BF91AF919F918F917F916F915F914F9142
:101EE0003F912F910F901F909FB789818078892B08
:101EF0008FBF0F90CF91DF9108958FB7F894E09145
:101F0000B601F091B701309719F481E594E005C06E
:101F1000148E0E94400F88E294E00E948D0C8FB7CF
:101F200080688FBFE091B601F091B70102A4F3A5DC
:101F3000E02D09950E947D0F1F939B01AC010FB608
:101F400007FC03C00E9402131EC01FB7F894E09163
:101F5000B601F091B70184E0848F8091B80190912F
:101F6000B901A091BA01B091BB01820F931FA41FC8
:101F7000B51F82A393A3A4A3B5A30E94400F8FB75C
:101F80001078182B1FBF1F9108950E94760D68EBE3
:101F90007BE080E090E00E949C0FF7CFCF93DF932F
:101FA000EC014A895B898B8D90E024ED3EEFBC010A
:101FB000629FC001639F900D729F900D1124895400
:101FC000904F8417950718F48DEC94E081C08F89A9
:101FD000988D841B950B298D3A8D2817390708F0A9
:101FE00079C080ED93E00E94AD0A00D08CEB94E0C4
:101FF000ADB7BEB712969C938E9311970E94A6120E
:1020000000D000D000D0EDB7FEB7319682EA94E060
:10201000ADB7BEB712969C938E93119788A599A5DC
:10202000938382838B8D848315828A899B8997838E
:1020300086830E94A612EDB7FEB738960FB6F894C5
:10204000FEBF0FBEEDBFCE010E94090D00D000D033
:1020500088E994E0ADB7BEB712969C938E93119722
:102060008D899E8914969C938E9313970E94A61235
:102070008AE894E0EDB7FEB7928381838F89988DCB
:10208000948383830E94A6124F89588D00D0EDB7A8
:10209000FEB7319680E794E0ADB7BEB712969C9339
:1020A0008E931197CA010196298D3A8D821B930B4D
:1020B00093838283558344830E94A612EDB7FEB7B3
:1020C00036960FB6F894FEBF0FBEEDBF81E694E0E2
:1020D0000E948D0CDF91CF9108959093B70180936A
:1020E000B6010E94CE0FE091B601F091B701868D46
:1020F000978DA0A1B1A10196A11DB11D868F978FCB
:10210000A0A3B1A3CF0161E070E00E948E26E09110
:10211000B601F091B701309719F406E010E003C062
:10212000838D082F10E01092B7011092B601C1E024
:10213000D0E06CE2E62EF12CDD24D394CE01800FAA
:10214000911F67E070E00E94382DBC018E9DF00168
:102150008F9DF00D9E9DF00D1124E558FD4F848D4F
:10216000843091F42091B8013091B9014091BA01C5
:102170005091BB0182A193A1A4A1B5A12817390751
:102180004A075B0708F0D48E6E9DF0016F9DF00D3D
:102190007E9DF00D1124E558FD4F848D813019F49A
:1021A000CF010E946D102196C830D10539F68FB746
:1021B00080688FBFFFCF08951F920F920FB60F92C6
:1021C0000BB60F9211242F933F934F935F936F930E
:1021D0007F938F939F93AF93BF93EF93FF938FE181
:1021E00095E00E948D0C1F920F920FB60F920BB6C6
:1021F0000F9211242F933F934F935F936F937F938D
:102200008F939F93AF93BF93EF93FF9383E884BD26
:102210008091B8019091B901A091BA01B091BB0130
:102220000196A11DB11D8093B8019093B901A093AF
:10223000BA01B093BB010E94400FFF91EF91BF9193
:10224000AF919F918F917F916F915F914F913F914E
:102250002F910F900BBE0F900FBE0F901F901895EF
:1022600085B7806885BFECE6F0E080818F7780835A
:10227000EDE6F0E080818D7F808385B78F7B85BF21
:1022800087EF87BBC69A8CEF81BB8EE482B983B19E
:10229000806383B98DE08093610010926400E2E670
:1022A000F0E08081846080831A9AC09A8081816086
:1022B00080831B9A8081877F808308950F931F936B
:1022C000CF93DF93182F062FEA0186EC93E00E944C
:1022D0000B0B179511271795102B106417B987ED65
:1022E00086B9349BFECF349A84B145B1342F20E0B7
:1022F00090E0282B392B3983288386EC93E00E94C9
:10230000DC0A80E0DF91CF911F910F91089586EC58
:1023100093E067E371E00E94FE0A089560659C0106
:1023200036952795622B6DB980FF02C0709A08958B
:1023300070980895FC0190E007C080818FB9779B69
:10234000FECF8FB181939F5F9617B8F380E0089519
:102350008BEC93E00E94DC0A08958BEC93E00E94E2
:102360000B0B80E008958BEC93E060E471E00E9439
:10237000FE0A08951E9A5D9BFECF8CB91E98282FE9
:10238000332727FD3095C9010895282F8A3031F46D
:102390001E9A5D9BFECF8DE08CB91E981E9A5D9BA8
:1023A000FECF2CB91E98332727FD3095C90108951B
:1023B000FC0106C01E9A5D9BFECF31968CB91E981B
:1023C00080818823B9F708951E9A5F9BFECF1E98DF
:1023D0008CB108951E9A5F9BFECF1E982CB13327B7
:1023E00027FD3095C90108958BB1807808959C012F
:1023F00040E050E064E0220F331F441F551F6A95F0
:10240000D1F760E072E18AE790E00E944B2DC901AC
:10241000DA01215029B90197A109B109892F9A2F11
:10242000AB2FBB27809390001BB886E0809395006C
:1024300088E18AB980ED93E069E471E00E94FE0AC8
:102440000895CF92DF92EF92FF920F931F938C012A
:102450007B0170EDC72E73E0D72EC6010E940B0BD7
:1024600083E591E0B801A7010E941A27182F092FD0
:10247000C6010E94DC0A812F902F1F910F91FF90BF
:10248000EF90DF90CF900895DF93CF93CDB7DEB775
:10249000FE01359681919191BF010E942112CF9149
:1024A000DF910895CF92DF92EF92FF920F931F93E7
:1024B0008C017B01E0EDCE2EE3E0DE2EC6010E9412
:1024C0000B0B83E591E0B801A7010E940D29182F9D
:1024D000092FC6010E94DC0A812F902F1F910F91B6
:1024E000FF90EF90DF90CF900895DF93CF93CDB71B
:1024F000DEB7FE01359681919191BF010E94521283
:10250000CF91DF910895CF92DF92EF92FF920F93D8
:102510001F938C017B01F0EDCF2EF3E0DF2EC6017F
:102520000E940B0B83E591E0B801A7010E940927E7
:10253000182F092FC6010E94DC0A812F902F1F91AE
:102540000F91FF90EF90DF90CF900895DF93CF939E
:10255000CDB7DEB7FE01359681919191BF010E9402
:102560008312CF91DF910895CF92DF92EF92FF9285
:102570000F931F938C017B01A0EDCA2EA3E0DA2EEE
:10258000C6010E940B0B83E591E0B801A7010E94F0
:102590000B21182F092FC6010E94DC0A812F902FD2
:1025A0001F910F91FF90EF90DF90CF900895DF93F0
:1025B000CF93CDB7DEB7FE01359681919191BF01E2
:1025C0000E94B412CF91DF91089530E007C0232F0D
:1025D0002A95F1F760567040804090406136710551
:1025E00081059105A0F720E032E14AE750E00E9422
:1025F000052D20EC36EC4DE250E00E944B2D2A9543
:10260000F1F7089520E03AEF07C0F9013197F1F7AB
:1026100060527040804090406132710581059105A3
:10262000A0F720E032E14AE750E00E94052D20EAC1
:102630003FE040E050E00E944B2DC9010197F1F7C7
:102640000895BC01809171008E7F8093710080910C
:1026500071008D7F8093710080E49FE10E94242DA2
:10266000603130F0862F90E0409795958795682FE0
:10267000609370000895A89AA99A909A919A1092DE
:10268000040210920302109206021092050284E6E0
:1026900090E00E942113E4E7F0E080818460808371
:1026A0001092BD011092BC01808181608083808185
:1026B000806480837894089590E0611191E08E7F2A
:1026C000982B9093720008959093040280930302D4
:1026D000089590930602809305020895E4E7F0E0E0
:1026E00080818F70806A80830895E4E7F0E08081C4
:1026F0008F70806D808308958091740087FFFCCF78
:10270000089580937300E4E7F0E080818F70806823
:1027100080830895882329F0809174008F70806CE5
:1027200004C0809174008F70806880937400089555
:10273000809173000895809171000895282F8091F1
:10274000BC019091BD01892BD1F782E090E090937C
:10275000BD018093BC012E7F2093BE01AFEBB1E0A1
:10276000FA0102C081918D938E2F841B8617D0F3BE
:102770001092DF016093E001809174008F70806A95
:10278000809374000895282F8091BC019091BD0121
:10279000892BD1F783E090E09093BD018093BC0139
:1027A00021602093BE011092010260930202809189
:1027B00074008F70806A809374008091BC01909146
:1027C000BD01892BD1F7A1EEB1E0FA0102C08D91D4
:1027D00081938E2F841B8617D0F30895982FFA01CA
:1027E000809174008E7F80937400809174008F704C
:1027F000806A809374008091740087FFFCCF9E7F75
:1028000090937300809174008F708068809374003F
:102810008091740087FFFCCF0FC08081809373008C
:10282000809174008F708068809374008091740030
:1028300087FFFCCF31966150662379F78091740051
:102840008F70806D809374008091740084FFFCCF42
:10285000809174008160809374000895982FFA012C
:10286000809174008E7F80937400809174008F70CB
:10287000806A809374008091740087FFFCCF916020
:1028800090937300809174008F70806880937400BF
:102890008091740087FFFCCF0EC0809174008F7010
:1028A000806C809374008091740087FFFCCF8091CE
:1028B000730081936150623080F7809174008F7053
:1028C000806C809374008091740087FFFCCF8091AE
:1028D00073008083809174008F70806D809374008A
:1028E0008091740081608093740008950F931F930A
:1028F000982FFA01809174008E7F809374008091EC
:1029000074008F70806A809374008091740087FFD8
:10291000FCCF6623E9F0892F8E7F8093730080912E
:1029200074008F708068809374008091740087FFBA
:10293000FCCF819180937300809174008F708068C8
:10294000809374008091740087FFFCCF615089F7F9
:102950002223D9F1809174008F70806A8093740073
:102960008091740087FFFCCF9160909373008091F9
:1029700074008F708068809374008091740087FF6A
:10298000FCCFF801922F0EC0809174008F70806C84
:10299000809374008091740087FFFCCF8091730056
:1029A00081939150923080F72150F801E20FF11D90
:1029B000809174008F70806C80937400809174009B
:1029C00087FFFCCF809173008083809174008F70AB
:1029D000806D809374008091740084FFFCCF80919F
:1029E00074008160809374001F910F9108951F926D
:1029F0000F920FB60F920BB60F9211242F933F93A5
:102A00004F935F936F937F938F939F93AF93BF93F6
:102A1000EF93FF9380917100887F803609F4A0C006
:102A2000813670F5883209F45FC0893298F48031BC
:102A300009F457C0813138F4882309F4F1C0883093
:102A400009F0F8C04EC0883109F44EC0803209F058
:102A5000F1C0E6C0803409F477C0813438F48033A3
:102A600009F4DEC0883309F0E5C05DC0803509F4A3
:102A70005FC0883509F44AC0883409F0DBC0D0C093
:102A8000883909F4C1C08939B0F4883709F468C0BD
:102A9000893738F4883609F463C0803709F0CAC032
:102AA0005FC0883809F4B0C0803909F462C080384A
:102AB00009F0C0C05EC0803B09F47DC0813B38F4A2
:102AC000803A09F465C0883A09F0B4C074C0803C0B
:102AD00009F4A1C0883C09F49EC0883B09F0AAC053
:102AE0007EC08091BE010FC09091DF018091E00116
:102AF000981708F095C0E92FF0E0E154FE4F80816F
:102B00009F5F9093DF01809373007EC080910102EC
:102B100090917300E82FF0E0EF51FE4F90838F5FAC
:102B2000809301027DC0809174008F7080687CC0AA
:102B30008091010290917300E82FF0E0EF51FE4F79
:102B400090838F5F809301022091010230E0809199
:102B5000020290E00197281739070CF055C04FC0CA
:102B600085E090E09093BD018093BC01109201023A
:102B700046C08091010290917300E82FF0E0EF5180
:102B8000FE4F90838F5F809301028032E8F537C05B
:102B9000809174008F70806C80937400E0910302C8
:102BA000F0910402309709F441C08091010261EE76
:102BB00071E009953BC084E090E09093BD01809363
:102BC000BC01E0910502F0910602309731F080E2FD
:102BD0006FEB71E009958093E0011092DF01909115
:102BE000DF01E92FF0E0E154FE4F80818093730014
:102BF0009F5F9093DF018091E001981728F4809106
:102C000074008F70806C04C0809174008F70806835
:102C1000809374000FC0809174008F70806C04C02A
:102C2000809174008F70806D809374001092BD014C
:102C30001092BC01FF91EF91BF91AF919F918F9145
:102C40007F916F915F914F913F912F910F900BBEAC
:102C50000F900FBE0F901F9018954F925F926F923A
:102C60007F928F929F92AF92BF92CF92DF92EF921C
:102C7000FF920F931F93DF93CF93CDB7DEB72897C3
:102C80000FB6F894DEBF0FBECDBF6B017C0100E034
:102C900010E0C801B7010E94AF178F3FD1F3C6986B
:102CA00064E670E080E090E00E94E512C69A00E0E1
:102CB00010E05E010894A11CB11C67E0462E512C67
:102CC00051E0652E712C49E0842E912C8C0E9D1EB6
:102CD0003CC00E943417482F0F5F1F4F807C803C00
:102CE00019F0FF24F39408C03FE3F32EF4220E946E
:102CF0003417482F0F5F1F4F20E030E0F501E20F3F
:102D0000F31FC201821B930BB30102C0660F771F32
:102D10008A95E2F7CB01842380832F5F3F4F2830D1
:102D2000310561F790E00DC08081882311F0C59ACC
:102D300001C0C598C79AC7983196E815F905A1F75B
:102D40009F5F9F1510F4F501EFCF0C151D0508F4DA
:102D5000C0CF0E94E6188091630090E023E0969532
:102D600087952A95E1F7817028960FB6F894DEBF13
:102D70000FBECDBFCF91DF911F910F91FF90EF90CC
:102D8000DF90CF90BF90AF909F908F907F906F908B
:102D90005F904F900895CF92DF92EF92FF921F9332
:102DA000DF93CF9300D00F92CDB7DEB77C01162F03
:102DB0006A010E94AD118F3F09F44BC0110F110F32
:102DC0001064198382E090E060E00E948E1181E03F
:102DD000E816F10459F0E1E0EE16F10428F0F2E013
:102DE000EF16F10451F404C01A9807C0C09805C04A
:102DF000809162008E7F80936200CE01019663E035
:102E00000E949A1181E0E816F10459F0E1E0EE1613
:102E1000F10428F0F2E0EF16F10451F404C01A9A1C
:102E200007C0C09A05C080916200816080936200F3
:102E30009A8180E02B8130E0822B932B26E09695BF
:102E400087952A95E1F7F601918380830E94A81166
:102E500080E00F900F900F90CF91DF911F91FF9026
:102E6000EF90DF90CF900895EF92FF921F93DF9342
:102E7000CF9300D0CDB7DEB7CE01019661E00E94BE
:102E80009A118091D5038F3F69F410E082E0E82E1B
:102E9000F12CEC0EFD1EC70161E00E949A111F5F2C
:102EA0001830C9F78091D5038F5F8093D50389814E
:102EB0000F900F90CF91DF911F91FF90EF900895A9
:102EC000EF92FF920F931F93CF93DF937C018B01BF
:102ED000C0E0D0E007C00E943417F801EC0FFD1FDE
:102EE00080832196CE15DF05B0F380E0DF91CF918E
:102EF0001F910F91FF90EF900895FF920F931F93F2
:102F0000DF93CF930F92CDB7DEB787ED89838091A2
:102F100062008B7F809362008E010F5F1F4FC8019C
:102F200061E00E949A11F02E012F8F2D902F61E009
:102F30000E949A11898187FFF8CF80916200846096
:102F40008093620061E070E080E090E00E94E51212
:102F50000F90CF91DF911F910F91FF900895EF9205
:102F6000FF920F931F93DF93CF9300D000D0CDB784
:102F7000DEB77B018C010E94AD118F3F69F181E0CA
:102F800090E060E00E948E1188EE8983D801C7012D
:102F90002FE0B695A795979587952A95D1F78A83BF
:102FA000BB27A12F902F8F2D880F8B83E092D50305
:102FB000EC820E947D17809162008B7F809362007B
:102FC0008E010F5F1F4FC80164E00E949A11C80173
:102FD00064E00E949A1180E00F900F900F900F9084
:102FE000CF91DF911F910F91FF90EF900895AF92D5
:102FF000BF92CF92DF92EF92FF920F931F93DF93D6
:10300000CF9300D000D0CDB7DEB7162F5A0179018B
:103010000E94AD118F3F19F42FEF3FEF44C081E0C4
:1030200090E060E00E948E1184E889831A821B82FE
:103030001C83809162008B7F80936200CE01019699
:1030400064E00E949A11612F70E0C701860F971FFC
:103050008150914028F0E12C31E0F32EE61AF70A76
:1030600000E010E06E010894C11CD11C0BC0F501FA
:10307000E00FF11F80818983C60161E00E949A11EF
:103080000F5F1F4F0E151F0590F380916200846043
:103090008093620061E070E080E090E00E94E512C1
:1030A0000E94A8119701C9010F900F900F900F90E7
:1030B000CF91DF911F910F91FF90EF90DF90CF9014
:1030C000BF90AF900895EF92FF920F931F93DF93FD
:1030D000CF9300D000D0CDB7DEB77B018C010E942A
:1030E000AD118F3F91F181E090E060E00E948E1180
:1030F00083E88983D801C7015FE0B695A7959795C6
:1031000087955A95D1F78A83BB27A12F902F8F2DB2
:10311000880F8B831C820E947D17809162008B7FB9
:1031200080936200CE01019664E00E949A11809122
:10313000620084608093620061E070E080E090E073
:103140000E94E5120E94A81180E00F900F900F904E
:103150000F90CF91DF911F910F91FF90EF90089505
:103160000F931F93DF93CF9300D0CDB7DEB78C01C1
:1031700087ED89831A820E94AD118F3F01F181E0B2
:1031800090E060E00E948E11809162008B7F8093BE
:103190006200CE01019662E00E949A118091620065
:1031A00084608093620061E070E080E090E00E94C3
:1031B000E5120E94A8118A81F801808380E00F90B7
:1031C0000F90CF91DF911F910F910895E2E6F0E00B
:1031D00080818460808361E070E080E090E00E9404
:1031E000E5120E94A8110895EF92FF920F931F938A
:1031F000DF93CF9300D000D0CDB7DEB77B018C0139
:103200000E94AD118F3F91F181E090E060E00E945B
:103210008E1183E58983D801C7017FE0B695A79514
:10322000979587957A95D1F78A83BB27A12F902F01
:103230008F2D880F8B831C820E947D1780916200E6
:103240008B7F80936200CE01019664E00E949A1108
:103250008091620084608093620061E070E080E0B1
:1032600090E00E94E5120E94A81180E00F900F905C
:103270000F900F90CF91DF911F910F91FF90EF90E2
:1032800008950895CF92DF92EF92FF920F931F93CC
:10329000082FD62EC72E86EDE82E83E0F82EC70124
:1032A0000E940B0B000F005E10E000501F4EF80153
:1032B000D192C082C7010E94DC0A1F910F91FF903A
:1032C000EF90DF90CF9008951F93182F80E090E04B
:1032D0000E94872B21E632EC44E85FE30E943D2CFC
:1032E0000E945B2B9B01AC012F5B3F4F812FB901EB
:1032F0000E9442191F91089586ED93E061E671E006
:103300000E94FE0A0895FF920F931F930BED13E0A6
:10331000C8010E940B0BF0901E11C8010E94DC0A2C
:103320008F2D80951F910F91FF9008951F93182F57
:103330008830A8F48BED93E00E940B0B80911E1156
:1033400090E08095909502C0959587951A95E2F743
:10335000182F11708BED93E00E94DC0A0EC08831AB
:1033600040F40E94BF1F10E08150924030F011E005
:1033700004C081E395E00E948D0C812F1F91089578
:103380008BED93E06CE671E00E94FE0A0895CF9207
:10339000DF92EF92FF920F931F93082F80EEC82EBB
:1033A00083E0D82EC6010E940B0B000F045210E0E0
:1033B00000501F4EF801E1901081C6010E94DC0A06
:1033C000912F80E0FF24E82AF92AC7011F910F916D
:1033D000FF90EF90DF90CF9008951F93182F0E94D9
:1033E000C719E12FF0E0EE0FFF1FE952FE4F2081D9
:1033F0003181821B930B1F9108951F93182F0E94F8
:10340000C719E12FF0E0EE0FFF1FE952FE4F918345
:1034100080831F91089580EE93E069E771E00E9438
:10342000FE0A089581B18295869587708095817096
:10343000089581B182958F70809581700895AF92C3
:10344000BF92CF92DF92EF92FF920F931F939B0157
:103450007C0100E010E040E050E0CA01B901A801A1
:1034600097010E94052D28EE33E040E050E00E94D5
:103470004B2DC901DA015C016D0160E271EA87E060
:1034800090E0A80197010E944B2D790100E010E027
:103490000FC0C49AC801B7010E94E512C498C801C0
:1034A000B7010E94E5120894A108B108C108D1082B
:1034B000A114B104C104D10461F71F910F91FF90D1
:1034C000EF90DF90CF90BF90AF9008950C99FECF12
:1034D00064E670E080E090E00E94E5120C9BFECF75
:1034E00008950D99FECF64E670E080E090E00E94C0
:1034F000E5120D9BFECF08951F930D9B02C00C9902
:10350000FCCF11B164E670E080E090E00E94E5122B
:103510000D9BFECF0C9BFCCF212F30E085E0369534
:1035200027958A95E1F72095309521703070C90173
:103530001F910895DF93CF9300D0CDB7DEB780E021
:1035400090E06FE070E0AE014F5F5F4F0E94CB16DE
:1035500069817A8180E090E00E94872B2CE135E43C
:1035600041E251E40E943D2C0E945B2BCB010F9065
:103570000F90CF91DF910895DF93CF9300D0CDB717
:10358000DEB780E090E061E070E0AE014F5F5F4F3A
:103590000E945E1189819A810F900F90CF91DF91E7
:1035A0000895CF92DF92EF92FF920F931F93DF93D4
:1035B000CF9300D0CDB7DEB76C017B0180E090E007
:1035C00061E070E0AE014F5F5F4F0E945E11EC184A
:1035D000FD080894E11CF11C00E010E029813A810B
:1035E00040E050E0C801B7010E94052D2AE0969501
:1035F0008795779567952A95D1F7C60ED71EC60190
:103600000F900F90CF91DF911F910F91FF90EF904E
:10361000DF90CF90089580919F018E3119F480E062
:1036200090E00895E0919F01F0E0E25BFB4F808124
:1036300090E0882309F491E081E09827892F08958C
:1036400002C00E94400F80919F018E31D1F3E09122
:103650009F01F0E0E25BFB4F8081882391F3909122
:103660009F01E92FF0E0E25BFB4F80819F5F909329
:103670009F0108950E94201B282F332727FD309596
:10368000C9010895EF92FF921F93CF93DF937C01BE
:10369000EB0187E00E94841F90E08E7090709595FA
:1036A0008795182F873061F00E94D01E682F88837D
:1036B000813218F00E945E1EECCFC7010E94961E58
:1036C000812FDF91CF911F91FF90EF900895CF93BD
:1036D000DF93EC018881823009F440C0833030F4FC
:1036E000882369F0813009F083C029C08530E9F072
:1036F000863009F44EC0833009F07AC03EC0A2E1A2
:10370000B4E0FE0132968CE101900D928150E1F718
:103710000E94C70C9B01AC0120936D0430936E0492
:1037200040936F045093700463C0A5E0B4E0FE01C1
:10373000329687E001900D928150E1F759C02091B7
:103740001002FE0190E08281821719F40E94CE09D6
:103750004FC09F5F31969E31B1F74AC02091100251
:10376000FE0190E08281821719F40E947E0A40C017
:103770009F5F31969E31B1F73BC010929F01AEE43E
:10378000B4E0FE0132968EE101900D928150E1F796
:103790002FC02091A0012F3F59F19A8180911002F2
:1037A000981729F46B817C81822F0E9492099D8158
:1037B00080911002981731F46E817F818091A00171
:1037C0000E949209988580911002981731F46985BA
:1037D0007A858091A0010E9492099B8580911002B8
:1037E000981731F46C857D858091A0010E94920923
:1037F000DF91CF910895EF92FF920F931F93DF9384
:10380000CF93CDB7DEB7A1970FB6F894DEBF0FBE4A
:10381000CDBF8E010E5F1F4F7E010894E11CF11C8D
:103820000E94A31F86FF0FC087E060E40E94271F4D
:1038300003C0C8010E94671BC801B7010E94421B58
:10384000682F8730B1F70E94400FEACF0F931F9384
:1038500002E610E0F8018081877F808366E970E0EE
:1038600080E090E00E94E51280E06DE30E94271F57
:1038700081E060E00E94271F86E067E00E94271F2A
:1038800081E160E20E94271F80E06BE30E94271F16
:10389000F80180818860808366E970E080E090E0D4
:1038A0000E94E5121F910F9108958091B6019091A9
:1038B000B701892BA9F48DE094E066E871E00E94DD
:1038C000FE0A10926C0410920C040E94261C8BEFCE
:1038D0009BE160E071E040E02EE831E00E94170ECD
:1038E0000895DF93CF9300D000D00F92CDB7DEB70D
:1038F00080916200877F8093620066E970E080E0DB
:1039000090E00E94E51280E06CE70E94271F81E0B2
:1039100060E00E94271F84E060E00E94271F83E090
:1039200063E00E94271F86E067E00E94271F85E072
:1039300062E00E94271FDE011196E1EAF1E085E0D6
:1039400001900D928150E1F780E1BE016F5F7F4FE2
:1039500045E00E94ED1E80E06AE70E94271F0E945A
:10396000A31F0F900F900F900F900F90CF91DF91AA
:103970000895DF92EF92FF920F931F93182F7B0110
:10398000042F0E94711C8AE00E94841FD82E8AE0B6
:10399000612F0E94271F80E1612F0E94271F87E06F
:1039A0006EE70E94271FC701602F0E94081E8091AA
:1039B000620088608093620064E170E080E090E0E3
:1039C0000E94E51280916200877F8093620002C0AE
:1039D0000E94400F87E00E94841F682F082F10E08C
:1039E000C80180739070892B99F3607387E00E94FF
:1039F000271F8AE06D2D0E94271F0E947A1E0E94B9
:103A0000261C35E0169507953A95E1F7802F8170D1
:103A10001F910F91FF90EF90DF9008950F931F93E8
:103A2000082F1FB7F89480910F02E82FF0E0E25DB5
:103A3000FB4F02838F5F80930F020A3011F08E31AB
:103A400059F483E080932E0487EE6EE274E040E246
:103A50000E94B91C10920F028FB71078182B1FBF4D
:103A6000202F332727FD3095C9011F910F9108950D
:103A70001F93182F8A3019F48DE00E940E1D812F9C
:103A80000E940E1D1F910895CF92DF92EF92FF9238
:103A90000F931F938C017B014DE0C42E44E0D42E84
:103AA000C6010E940B0B81E991E0B801A7010E94B9
:103AB0001A27182F092FC6010E94DC0A812F902F88
:103AC0001F910F91FF90EF90DF90CF900895DF93BB
:103AD000CF93CDB7DEB7FE01359681919191BF01AD
:103AE0000E94441DCF91DF910895CF92DF92EF9213
:103AF000FF920F931F938C017B015DE0C52E54E074
:103B0000D52EC6010E940B0B81E991E0B801A701F7
:103B10000E940D29182F092FC6010E94DC0A812F4F
:103B2000902F1F910F91FF90EF90DF90CF9008950D
:103B3000DF93CF93CDB7DEB7FE013596819191919A
:103B4000BF010E94751DCF91DF910895CF92DF9242
:103B5000EF92FF920F931F938C017B016DE0C62EB5
:103B600064E0D62EC6010E940B0B81E991E0B801FA
:103B7000A7010E940927182F092FC6010E94DC0AFD
:103B8000812F902F1F910F91FF90EF90DF90CF909A
:103B90000895DF93CF93CDB7DEB7FE0135968191BF
:103BA0009191BF010E94A61DCF91DF910895CF9200
:103BB000DF92EF92FF920F931F938C017B017DE0C8
:103BC000C72E74E0D72EC6010E940B0B81E991E04D
:103BD000B801A7010E940B21182F092FC6010E94CE
:103BE000DC0A812F902F1F910F91FF90EF90DF90B3
:103BF000CF900895DF93CF93CDB7DEB7FE01359612
:103C000081919191BF010E94D71DCF91DF910895BD
:103C1000FF920F931F93DF93CF93CDB7DEB7A1979A
:103C20000FB6F894DEBF0FBECDBF082FF92E162FAA
:103C30000E94AD1180EA89839E012E5F3F4FC9012A
:103C4000602F7F2D412F50E00E94C92682E090E036
:103C500060E00E948E111B981F5FCE010196612FBC
:103C60000E949A111B9A0E94A8118981A1960FB6F1
:103C7000F894DEBF0FBECDBFCF91DF911F910F91A2
:103C8000FF900895DF93CF930F92CDB7DEB70E94D8
:103C9000AD1183EE898382E090E060E00E948E1196
:103CA0001B98CE01019661E00E949A111B9A0E9416
:103CB000A81189810F90CF91DF910895DF93CF9361
:103CC0000F92CDB7DEB70E94AD1182EE898382E0FC
:103CD00090E060E00E948E111B98CE01019661E099
:103CE0000E949A111B9A0E94A81189810F90CF916E
:103CF000DF910895DF93CF930F92CDB7DEB70E9487
:103D0000AD1181EE898382E090E060E00E948E1127
:103D10001B98CE01019661E00E949A111B9A0E94A5
:103D2000A81189810F90CF91DF910895FF920F9391
:103D30001F93DF93CF93CDB7DEB7A1970FB6F8945B
:103D4000DEBF0FBECDBF082FF92E162F0E94AD117A
:103D500081E6898382E090E060E00E948E111B98EA
:103D6000612F6F5FCE0101960E949A111B9A0E94EB
:103D7000A8119E012E5F3F4F802F9F2DB901412F2B
:103D800050E00E94C9268981A1960FB6F894DEBF43
:103D90000FBECDBFCF91DF911F910F91FF9008957E
:103DA000DF93CF9300D0CDB7DEB70E94AD1180E690
:103DB000898382E090E060E00E948E111B98CE0122
:103DC000019662E00E949A111B9A0E94A8118A81B2
:103DD0000F900F90CF91DF910895EF92FF920F9384
:103DE0001F93DF93CF9300D000D000D0CDB7DEB7C4
:103DF000182FF62EE72E042F0E94AD1110621983A2
:103E00009E012E5F3F4FC9016F2D7E2D402F50E048
:103E10000E94C92682E090E060E00E948E111B980B
:103E20000F5FCE010196602F0E949A111B9A0E948B
:103E3000A811898126960FB6F894DEBF0FBECDBFBC
:103E4000CF91DF911F910F91FF90EF9008950F9305
:103E50001F93DF93CF9300D0CDB7DEB7182F062F77
:103E60000E94AD11106219830A8382E090E060E045
:103E70000E948E111B98CE01019662E00E949A1159
:103E80001B9A0E94A81189810F900F90CF91DF910A
:103E90001F910F910895EF92FF920F931F93DF935D
:103EA000CF9300D000D000D0CDB7DEB7182FF62EBC
:103EB000E72E042F0E94AD11198382E090E060E0AC
:103EC0000E948E111B98602F6F5FCE0101960E9499
:103ED0009A111B9A0E94A8119E012E5F3F4F8F2DB1
:103EE0009E2DB901402F50E00E94C9268981269657
:103EF0000FB6F894DEBF0FBECDBFCF91DF911F91FB
:103F00000F91FF90EF9008951F93DF93CF9300D010
:103F1000CDB7DEB7182F0E94AD11198382E090E073
:103F200060E00E948E111B98CE01019662E00E9413
:103F30009A111B9A0E94A8118A810F900F90CF911D
:103F4000DF911F910895DF93CF930F92CDB7DEB726
:103F50000E94AD118FEF898382E090E060E00E94C3
:103F60008E111B98CE01019661E00E949A111B9A56
:103F70000E94A81189810F90CF91DF910895DF935E
:103F8000CF9300D0CDB7DEB7982F8850883090F40B
:103F900003C087E595E015C067E170E0691B710912
:103FA00081E090E0AE014F5F5F4F0E94CB16882307
:103FB000D9F0EFCF892F8051883028F012C08AE4E1
:103FC00095E00E948D0C6FE170E0691B710982E041
:103FD00090E0AE014F5F5F4F0E94CB16882321F027
:103FE000EECF8EE395E0EDCF89819A810F900F900F
:103FF000CF91DF9108958F929F92AF92BF92CF920F
:10400000DF92EF92FF920F931F93DF93CF93CDB781
:10401000DEB7FC01009721F482E995E00E948D0C47
:10402000408351836283738304831583268337839C
:10403000C086D186E286F386B586A4869786868674
:1040400080E090E0A0E0B0E0848B958BA68BB78BEE
:10405000108E11A2CF91DF911F910F91FF90EF90E1
:10406000DF90CF90BF90AF909F908F9008952F9248
:104070003F924F925F926F927F928F929F92AF92F8
:10408000BF92CF92DF92EF92FF920F931F93CF9345
:10409000DF93EC011A012B01688979898A899B8950
:1040A000A20191010E94852A3B014C01288139819E
:1040B0004A815B810E943D2C7B018C01888D882385
:1040C00059F40F2EF0E06F2EF0E07F2EF0E08F2EEF
:1040D000F0E09F2EF02D52C00E94B60C2D8D3E8D2B
:1040E0004F8D58A1621B730B840B950B0E94872B7D
:1040F0002FE632E143E85AE30E943D2C5B016C015C
:10410000A40193010E943D2C2C893D894E895F8931
:104110000E94862A3B014C012C813D814E815F81AA
:104120000E943D2C9B01AC01C801B7010E94862A68
:104130007B018C01C601B50120E030E040E050E099
:104140000E94EA2A8823D1F0C201B101298D3A8D5B
:104150004B8D5C8D0E94852A288539854A855B8533
:104160000E943D2CA60195010E94EE2A9B01AC0104
:10417000C801B7010E94862A7B018C0181E0888FEB
:104180006C8A7D8A8E8A9F8A298E3A8E4B8E5C8EAF
:104190000E94B60C6D8F7E8F8F8F98A3EE85FF8562
:1041A000309719F0C801B7010995B701C801DF912F
:1041B000CF911F910F91FF90EF90DF90CF90BF9024
:1041C000AF909F908F907F906F905F904F903F90B7
:1041D0002F900895CF93DF93EC0189A1882319F4E0
:1041E00089E795E006C0EC85FD85309721F484E6EB
:1041F00095E00E948D0C0995AB01BC01CE010E9497
:104200003720DF91CF910895CF93DF93EC01CE015A
:104210000E94EA20FCCFA1E1B0E0E1E1F1E20C94E0
:104220006D2D3C017F876E876A01FC011782168223
:10423000838181FD03C06FEF7FEF71C39E012F5F0C
:104240003F4F398B288BF3012381EE85FF8523FDBA
:10425000859123FF8191FF87EE87882309F45CC352
:10426000853251F4EE85FF8523FD859123FF8191F1
:10427000FF87EE87853229F490E0B3010E94DD26A6
:10428000E2CF982F10E0882499241032B0F49B32AA
:1042900069F09C3228F4903251F0933271F40BC0E3
:1042A0009D3239F0903349F4116028C012601460D7
:1042B00025C0186023C0106121C017FD2AC0892FB6
:1042C00080538A3078F416FF06C0FAE09F9E902C47
:1042D0001124980E13C03AE0839E802C1124880E7E
:1042E00010620CC09E3221F416FD16C3106406C085
:1042F0009C3611F4106802C0983659F4EE85FF859B
:1043000023FD959123FF9191FF87EE87992309F073
:10431000BCCF892F8554833020F4812F8061905E3B
:1043200007C0892F8556833008F0A1C1812F8F7E69
:1043300086FD02C076E0972E6FE3F62EF8229536C2
:1043400019F4F0E4FF2A07C0963619F420E8F22A9F
:1043500002C091109A94F7FE0BC03BE3391520F48C
:1043600027E05CE3B52E0EC0B92CB39427E00AC059
:1043700047E0491528F427E0BB2447E0942E02C00B
:10438000292DBB24C60104969D878C87F601608188
:10439000718182819381AE014F5F5F4F0B2D0E942F
:1043A00096256C010981202E332400FF04C003FDF3
:1043B00002C01DE209C0F1FE02C01BE205C0F2FC12
:1043C00002C010E001C010E2C1018C709070892B16
:1043D000B9F1112311F483E001C084E0881510F0D5
:1043E00088240AC0881AF3FC07C080E290E0B30179
:1043F0000E94DD268A94C9F7112329F0812F90E0CD
:10440000B3010E94DD2623FE03C005EA15E00EC0BD
:1044100009EA15E00BC0E114F10409F0805290E0C4
:10442000B3010E94DD260F5F1F4F05C0EF2CFF2454
:10443000F0E1EF22FF24F8018491882361F714C191
:10444000F7FE12C0BC0C24FE04C08A81813309F43B
:10445000BA941B141CF0BB24B3942DC0F8E0FB15D8
:1044600050F538E0B32E27C0F6FC25C0892D90E02A
:104470008C159D054CF02CEFC2162FEFD20624F0C0
:1044800030E8F32A01C09A94992049F0E2E0F0E084
:10449000EC0FFD1FE90DF11D80818033A1F3F7FEC4
:1044A0000AC0B92CB394892D90E0C816D90614F02F
:1044B000992401C09C18F7FC03C025E030E009C036
:1044C0001C141D041CF021E030E003C096012F5F96
:1044D0003F4F112311F02F5F3F4F992029F0892D75
:1044E00090E00196280F391F882D90E02817390792
:1044F00014F0882401C0821A4F2C5524C2018970FF
:104500009070892B39F008C080E290E0B3010E94DE
:10451000DD268A948820C1F7112329F0812F90E0AD
:10452000B3010E94DD2643FE07C008C080E390E08F
:10453000B3010E94DD268A948820C1F7F7FE46C0A9
:104540008601D7FE02C000E010E076010894E11C6D
:10455000F11CE01AF10A41E050E04C0F5D1FE40E3F
:10456000F51E26014B185108892D90E0AA24BB2482
:10457000A81AB90A5FEF0F3F150729F48EE290E001
:10458000B3010E94DD26C016D10634F04016510654
:104590001CF4F701808101C080E3015010400894B1
:1045A000E11CF11C0A151B052CF090E0B3010E94E0
:1045B000DD26E0CF0C151D0539F49A81963318F4E9
:1045C000953311F424FE81E390E04BC08A8181335E
:1045D00009F00F7E90E0B3010E94DD269920A1F042
:1045E0008EE290E0B3010E94DD2612E0E1E0F0E00F
:1045F000EC0FFD1FE10FF11D1F5F808190E0B30103
:104600000E94DD269A9491F744FC03C085E690E071
:1046100002C085E490E0B3010E94DD26D7FC05C00E
:10462000C114D10441F404FF06C0D094C194D10850
:10463000D3948DE201C08BE290E0B3010E94DD26AD
:1046400080E305C08F5F26EF3FEFC20ED31E3AE036
:10465000C316D104BCF790E0B3010E94DD26C60169
:10466000C096B3010E94DD26CC84DD8452C193360E
:1046700031F0933799F0933509F059C023C0F60112
:10468000808189835E010894A11CB11C22E030E086
:10469000C20ED31E21E0E22EF12C12C0F601A08042
:1046A000B18016FD03C06FEF7FEF02C0692D70E08F
:1046B00022E030E0C20ED31EC5010E94D2267C014A
:1046C0001F7713C0F601A080B18016FD03C06FEF05
:1046D0007FEF02C0692D70E022E030E0C20ED31EF1
:1046E000C5010E94BE267C01106813FF07C01BC0D5
:1046F00080E290E0B3010E94DD268A94882D90E04C
:10470000E816F906A8F30FC0F50117FD859117FF0C
:1047100081915F0190E0B3010E94DD2681108A94AF
:104720000894E108F108E114F10471F7F2C094363D
:1047300011F0993689F517FF08C0F6012081318103
:104740004281538184E090E00AC0F601808191812A
:104750009C01442737FD4095542F82E090E0C80E1D
:10476000D91E9FE6F92EF12257FF09C050954095BA
:10477000309521953F4F4F4F5F4F90E8F92ACA017E
:10478000B901AE014F5F5F4F2AE030E00E942B2756
:10479000E82EE889EE1A41C0953721F41F7E2AE001
:1047A00030E01CC0197F9F3661F0903720F49835B7
:1047B00009F0B2C00FC0903739F0983709F0ACC09B
:1047C00004C028E030E00AC0106114FD146020E14C
:1047D00030E004C014FD166020E132E017FF08C08D
:1047E000F601608171818281938144E050E008C0CC
:1047F000F60180819181BC0180E090E042E050E0D0
:10480000C40ED51EAE014F5F5F4F0E942B27E82ECE
:104810005889E51A8FE7F82EF122F6FE0BC08EEFCD
:10482000F822E91438F4F4FE07C0F2FC05C09FEE4C
:10483000F92202C01E2D01C0192DF4FE0DC0FE018B
:10484000EE0DF11D8081803319F4E9EEFE2208C0DF
:104850001F5FF2FE05C003C08F2D867809F01F5F31
:104860000F2DF3FC14C0F0FE0FC0181510F09E2C95
:104870000BC09E2C980C911A182D06C080E290E077
:10488000B3010E94DD261F5F1815C0F304C0181580
:1048900010F4811A01C0882404FF0FC080E390E067
:1048A000B3010E94DD2602FF1DC001FD03C088E7A1
:1048B00090E00EC088E590E00BC0802F867891F0E4
:1048C00001FF02C08BE201C080E2F7FC8DE290E0C4
:1048D000B3010E94DD2606C080E390E0B3010E9490
:1048E000DD269A94E914C0F3EA94E1E0F0E0EC0FDD
:1048F000FD1FEE0DF11D808190E0B3010E94DD26C9
:10490000EE2091F706C080E290E0B3010E94DD2620
:104910008A948820C1F797CCF30166817781CB0117
:104920006196E2E10C94892DCF93DF93BC01823034
:10493000910510F462E070E0A0917304B0917404EA
:10494000ED01E0E0F0E040E050E021C08881998195
:104950008617970769F48A819B81309719F09383B2
:10496000828304C09093740480937304FE0134C066
:104970006817790738F44115510519F08417950720
:1049800008F4AC01FE018A819B819C01E90120971A
:10499000E9F641155105A9F1CA01861B970B049749
:1049A00008F4BA01E0E0F0E02AC08D919C911197E3
:1049B00084179507F9F46417750781F412968D91A1
:1049C0009C911397309719F09383828304C090933E
:1049D000740480937304FD0132964CC0CA01861B97
:1049E000970BFD01E80FF91F6193719302978D9367
:1049F0009C9340C0FD01828193819C01D901109755
:104A0000A1F68091710490917204892B41F48091F8
:104A1000A8019091A9019093720480937104409130
:104A2000AA015091AB014115510541F44DB75EB754
:104A30008091A6019091A701481B590B2091710408
:104A400030917204CA01821B930B8617970780F07E
:104A5000AB014E5F5F4F8417950750F0420F531F15
:104A60005093720440937104F9016193719302C0F1
:104A7000E0E0F0E0CF01DF91CF910895CF93DF9395
:104A8000009709F450C0EC0122971B821A82A09172
:104A90007304B0917404109709F140E050E0AC1732
:104AA000BD0708F1BB83AA83FE0121913191E20F7A
:104AB000F31FAE17BF0779F48D919C911197280FC2
:104AC000391F2E5F3F4F3983288312968D919C9119
:104AD00013979B838A834115510571F4D093740415
:104AE000C093730420C012968D919C911397AD01D1
:104AF000009711F0DC01D3CFFA01D383C283219157
:104B00003191E20FF31FCE17DF0769F48881998195
:104B1000280F391F2E5F3F4FFA01318320838A818E
:104B20009B8193838283DF91CF910895283008F091
:104B300027E03327DA01990F311D87FD9160009638
:104B40006105710539F432602E5F3D9330E32A959B
:104B5000E1F708959F3F30F080387105610509F055
:104B60003C5F3C5F3D93913008F08068911DDF937E
:104B7000CF931F930F93FF92EF92192F987F9695E3
:104B8000E92F96959695E90FFF27E95FF94F992749
:104B90003327EE24FF24A701E7010590089407942A
:104BA00028F4360FE71EF81E491F511D660F771FA8
:104BB000881F991F0694A1F70590079428F4E70E23
:104BC000F81E491F561FC11D770F881F991F661FAA
:104BD0000694A1F70590079428F4F80E491F561F74
:104BE000C71FD11D880F991F661F771F0694A1F755
:104BF0000590079420F4490F561FC71FD81F990F1F
:104C0000661F771F881F0694A9F784911095177067
:104C100041F0D695C79557954795F794E7941A951F
:104C2000C1F7EDEAF5E0689415901591359165911D
:104C3000959105907FE27395E118F10A430B560BAD
:104C4000C90BD009C0F7E10CF11E431F561FC91F45
:104C5000D01D7EF4703311F48A95E6CFE8940150AC
:104C600030F0080F0AF40027021708F4202F2395CC
:104C7000022F7A3328F079E37D932A95E9F710C063
:104C80007D932A9589F6069497956795379517959C
:104C90001794E118F10A430B560BC90BD00998F091
:104CA00023957E9173957A3308F070E37C932013FB
:104CB000B8F77E9170617D9330F0839571E37D93B9
:104CC00070E32A95E1F71124EF90FF900F911F9167
:104CD000CF91DF91992787FD90950895DC012D9262
:104CE0003D924D925D926D927D928D929D92AD928C
:104CF000BD92CD92DD92ED92FD920D931D93CD93D9
:104D0000DD93FF91EF918DB78D938EB78D938FB714
:104D10008D93ED93FD93882799270994DC01CB01AE
:104D200081309105811D2D903D904D905D906D904D
:104D30007D908D909D90AD90BD90CD90DD90ED904B
:104D4000FD900D911D91CD91DD91ED91FD910D9015
:104D5000F894FEBF0FBEEDBFED91FD910994FB01EC
:104D6000DC014150504048F005900D920020C9F7F9
:104D700001C01D9241505040E0F70895FC0105909C
:104D8000615070400110D8F7809590958E0F9F1F4D
:104D90000895FB01DC0102C001900D92415050408A
:104DA000D8F70895FC016150704001900110D8F7C8
:104DB000809590958E0F9F1F08950F931F93CF930B
:104DC000DF938C01EB018B8181FF1BC082FF0DC043
:104DD0002E813F818C819D812817390764F4E881F9
:104DE000F9810193F983E88306C0E885F985802F6E
:104DF0000995892B31F48E819F8101969F838E8343
:104E000002C00FEF1FEFC801DF91CF911F910F91EB
:104E100008950F931F938C01FC0183818860838325
:104E2000C8010E940B21F8012381277F23831F9152
:104E30000F9108950F931F938C01FC01838188606B
:104E40008383C8010E940D29F8012381277F2383D2
:104E50001F910F910895FA01AA27283051F12031AE
:104E600081F1E8946F936E7F6E5F7F4F8F4F9F4FFE
:104E7000AF4FB1E03ED0B4E03CD0670F781F891F40
:104E80009A1FA11D680F791F8A1F911DA11D6A0F0E
:104E9000711D811D911DA11D20D009F468943F91C1
:104EA0002AE0269F11243019305D3193DEF6CF01C0
:104EB0000895462F4770405D4193B3E00FD0C9F786
:104EC000F6CF462F4F70405D4A3318F0495D31FDF3
:104ED0004052419302D0A9F7EACFB4E0A695979546
:104EE000879577956795BA95C9F70097610571051C
:104EF00008959B01AC010A2E069457954795379566
:104F00002795BA95C9F7620F731F841F951FA01DBF
:104F10000895FC0120FD08C023FD05C022FF02C04A
:104F200073836283518340830895EF92FF920F93BE
:104F30001F9344FF02C033E011C046FF02C034E0BB
:104F40000DC0DB01FC01AA0FBB1FEE1FFF1F109459
:104F5000D1F76A0F7B1F8E1F9F1F31E0660F771FEF
:104F6000881F991F3150D1F77B018C01E20EF11C93
:104F7000011D111DA8019701B701CA011F910F91D1
:104F8000FF90EF9008950F931F93CF93DF938C01C1
:104F9000C8010E94292AEC0197FD08C00E94A42D97
:104FA000892BB1F7CE01B8010E946B2ACE01DF91A7
:104FB000CF911F910F910895A0E0B0E0E2EEF7E2EB
:104FC0000C94752DEC01C62E5A01122F0E94292A2D
:104FD000AC018B3219F08D3251F41068CA9409F487
:104FE0006DC0CE010E94292AAC0197FD67C06DEF0C
:104FF000D62ED1228D2D807301F54033F1F4CA9461
:1050000009F447C0CE010E94292AAC0197FD41C096
:1050100082E0D82A483711F0483559F480E4D82A7C
:10502000CA94B9F1CE010E94292AAC0199232CF42B
:1050300030C0D6FC02C080E1D82AEE24FF248701CC
:10504000242F2053283088F0D4FC09C02A3068F07F
:10505000D6FE05C02F7D822F8151863028F0CA01EF
:10506000BE010E946B2A12C02750C801B7014D2D06
:105070000E9495277B018C0182E0D82ACA9461F0B6
:10508000CE010E94292AAC0197FFDACFD1FC04C0DF
:1050900015C0EE24FF248701D7FE08C010950095A7
:1050A000F094E094E11CF11C011D111DC501B80133
:1050B000A7012D2D0E94892781E001C080E0CDB796
:1050C000DEB7EAE00C94912DA0E2B0E0EAE6F8E267
:1050D0000C94712D6C01A62E8A017901FE01319686
:1050E00080E2DF011D928A95E9F770E030E060E030
:1050F00040E050E04F01A1E0B0E0F6018381F7010C
:1051000083FD259183FF21917F01222309F47EC035
:105110002E3519F44115510569F1872F90E0841758
:10512000950744F42D3551F12D3221F4332329F420
:1051300031E021C0332309F4622F322F832F86956B
:1051400086958695F401E80FF11D832F87703D0148
:1051500002C0660C771C8A95E2F7208126292083FD
:10516000361711F430E007C0361710F43F5FE6CF72
:105170003150E4CF71E04F5F5F4FBFCF332319F061
:105180008E8180628E83772359F0FE0131969E01D5
:105190002F5D3F4F808180958193E217F307D1F710
:1051A000BB24B3944E010894811C911CC6010E943B
:1051B000292AAC0197FD22C0869586958695F40133
:1051C000E80FF11D808190E09A012770307002C0D5
:1051D000959587952A95E2F780FD05C0CA01B6012D
:1051E0000E946B2A0BC00115110519F0D8014D93CF
:1051F0008D01AA94BB24AA20C9F602C0BB2031F4B9
:105200000115110529F0F801108202C0EE24FF24D7
:10521000C701A096EEE00C948D2DA0E0B0E0E3E194
:10522000F9E20C94712D5C016B013A01FC011782CB
:1052300016828824EAC0812F90E00E94A42D892B39
:1052400021F0C5010E94C327E0C0153249F4F601E0
:10525000F3FC6591F3FE61916F01653269F415E22B
:10526000C5010E94292A97FDDCC0181709F4CDC09A
:10527000B5010E946B2ADAC06A3219F0162F00E0DD
:1052800006C0F3FC1591F3FE11916F0101E0992422
:105290000FC00260692D70E080E090E040E20E9463
:1052A0009527962EF601F3FC1591F3FE11916F01EF
:1052B000212F20532A3068F301FD03C099249A94CA
:1052C00003C0992009F4B2C0183621F01C3699F4B5
:1052D000F6010BC0F601F3FC6591F3FE61916836AF
:1052E00019F06F01162F07C008600460F3FC1591D8
:1052F000F3FE11916F01112309F498C087EA96E03B
:10530000612F70E00E941E2A892B09F48FC0802F24
:1053100000FF03C0EE24FF2407C0F301E080F1800A
:1053200022E030E0620E731E1E3651F4F501468114
:10533000578160E070E0C701202F0E94892765C077
:10534000133691F481FD02C099249394C5010E9403
:10535000292A97FD66C0E114F10419F0F701819341
:105360007F019A9499F74FC01B3559F4C501692DF7
:10537000A70196010E9464286C01009709F043C0C0
:105380003DC0C5010E94C32797FD4BC01F3659F190
:10539000103728F4143629F1193639F527C0133798
:1053A00019F0153711F51DC0C5010E94292AEC011D
:1053B00097FD11C00E94A42D892B29F0CE01B501C3
:1053C0000E946B2A08C0E114F10419F0F701C1939F
:1053D0007F019A9449F7E114F104A9F0F7011082D2
:1053E00012C0006203C0006101C00064C501692DE4
:1053F000A701202F0E94DC27882329F4F50183814F
:10540000807379F413C000FF8394F501F380F601F3
:10541000F3FC1591F3FE11916F01112309F00BCFED
:1054200005C0882019F42FEF3FEF02C0282D30E08F
:10543000C901CDB7DEB7EEE00C948D2DFC010590CF
:10544000061621F00020D9F7C00108953197CF0149
:105450000895CF93DF93EC014B8140FF1AC046FFC4
:105460000AC04F7B4B838E819F8101969F838E83E1
:105470008A81282F2BC042FF13C0E881F9818081E7
:10548000282F332727FD30952115310529F4406257
:105490004B832FEF3FEF1BC03196F983E88311C098
:1054A000EA85FB85CE0109959C0197FF0AC09B8187
:1054B0002F5F3F4F11F080E201C080E1892B8B8389
:1054C000E8CF8E819F8101969F838E8330E0C90152
:1054D000DF91CF9108959C01FB01838180FF11C072
:1054E00086FD0FC09FEF2F3F390759F0228380645C
:1054F0008F7D83838681978101979783868330E0B0
:1055000002C02FEF3FEFC90108955058BB27AA27CB
:105510000ED075C166D130F06BD120F031F49F3FD1
:1055200011F41EF45BC10EF4E095E7FB51C1E92FC5
:1055300077D180F3BA17620773078407950718F0CD
:1055400071F49EF58FC10EF4E0950B2EBA2FA02DAD
:105550000B01B90190010C01CA01A0011124FF2720
:10556000591B99F0593F50F4503E68F11A16F0401B
:10557000A22F232F342F4427585FF3CF469537951A
:105580002795A795F0405395C9F77EF41F16BA0BDF
:10559000620B730B840BBAF09150A1F0FF0FBB1F8D
:1055A000661F771F881FC2F70EC0BA0F621F731FD6
:1055B000841F48F4879577956795B795F7959E3F33
:1055C00008F0B3CF9395880F08F09927EE0F9795C1
:1055D00087950895D9D008F481E008950CD00FC1C3
:1055E00007D140F0FED030F021F45F3F19F0F0C059
:1055F000511139C1F3C014D198F39923C9F355233C
:10560000B1F3951B550BBB27AA27621773078407B5
:1056100038F09F5F5F4F220F331F441FAA1FA9F36B
:1056200033D00E2E3AF0E0E830D091505040E6955D
:10563000001CCAF729D0FE2F27D0660F771F881FBE
:10564000BB1F261737074807AB07B0E809F0BB0BAD
:10565000802DBF01FF2793585F4F2AF09E3F5105D1
:1056600068F0B6C000C15F3FECF3983EDCF386956E
:1056700077956795B795F7959F5FC9F7880F911D47
:105680009695879597F90895E1E0660F771F881F33
:10569000BB1F621773078407BA0720F0621B730BE6
:1056A000840BBA0BEE1F88F7E095089504D0689438
:1056B000B111D9C00895BCD088F09F5790F0B92F90
:1056C0009927B751A0F0D1F0660F771F881F991F57
:1056D0001AF0BA95C9F712C0B13081F0C3D0B1E069
:1056E0000895C0C0672F782F8827B85F39F0B93F79
:1056F000CCF3869577956795B395D9F73EF4909559
:105700008095709561957F4F8F4F9F4F0895E894D6
:1057100009C097FB3EF490958095709561957F4FF9
:105720008F4F9F4F9923A9F0F92F96E9BB279395A7
:10573000F695879577956795B795F111F8CFFAF4B7
:10574000BB0F11F460FF1BC06F5F7F4F8F4F9F4FE8
:1057500016C0882311F096E911C0772321F09EE846
:10576000872F762F05C0662371F096E8862F70E0AC
:1057700060E02AF09A95660F771F881FDAF7880F86
:105780009695879597F90895990F0008550FAA0BDC
:10579000E0E8FEEF16161706E807F907C0F0121644
:1057A0001306E407F50798F0621B730B840B950B47
:1057B00039F40A2661F0232B242B252B21F408959C
:1057C0000A2609F4A140A6958FEF811D811D089539
:1057D00097F99F6780E870E060E008959FEF80ECA4
:1057E000089500240A941616170618060906089547
:1057F00000240A9412161306140605060895092EAD
:105800000394000C11F4882352F0BB0F40F4BF2B1B
:1058100011F460FF04C06F5F7F4F8F4F9F4F08955B
:1058200057FD9058440F551F59F05F3F71F0479551
:10583000880F97FB991F61F09F3F79F08795089536
:10584000121613061406551FF2CF4695F1DF08C055
:10585000161617061806991FF1CF86957105610572
:1058600008940895E894BB2766277727CB0197F91A
:1058700008958ADF08F48FEF08950BD0C0CFB1DF11
:1058800028F0B6DF18F0952309F0A2CFA7CF112496
:10589000EACFC6DFA0F3959FD1F3950F50E0551FD7
:1058A000629FF001729FBB27F00DB11D639FAA2775
:1058B000F00DB11DAA1F649F6627B00DA11D661FC4
:1058C000829F2227B00DA11D621F739FB00DA11DE5
:1058D000621F839FA00D611D221F749F3327A00D9F
:1058E000611D231F849F600D211D822F762F6A2F3B
:1058F00011249F5750408AF0E1F088234AF0EE0FC0
:10590000FF1FBB1F661F771F881F91505040A9F7CC
:105910009E3F510570F05CCFA6CF5F3FECF3983E01
:10592000DCF3869577956795B795F795E7959F5F33
:10593000C1F7FE2B880F911D9695879597F90895CD
:1059400011F40EF44BCF4AC073DFD0F39923D9F38F
:10595000CEF39F57550B87FF51D056959795B0E0E2
:1059600020F4660F771F881FBB1F1F930F9300241F
:105970009001A0018001F001A0E80E0F1F1F0A1E78
:10598000511D601B710B8009B50B48F4600F711F2E
:10599000801DB51F0E1B1F0B0A0A510907C02E0FD1
:1059A0003F1F4A1F0E0F1F1F0A1E511D660F771F34
:1059B000881FBB1FA695F795E795F8F606171707FA
:1059C00008065B07211D311D411D0F911F91B90173
:1059D000842F9158880F9695879508959F3F49F099
:1059E000915028F4869577956795B7959F5F803895
:1059F0009F4F880F9695879597F90895915050403D
:105A0000660F771F881FD2F70895629FD001739F9A
:105A1000F001829FE00DF11D649FE00DF11D929F4A
:105A2000F00D839FF00D749FF00D659FF00D992789
:105A3000729FB00DE11DF91F639FB00DE11DF91FAD
:105A4000BD01CF0111240895AA1BBB1B51E107C062
:105A5000AA1FBB1FA617B70710F0A61BB70B881FFE
:105A6000991F5A95A9F780959095BC01CD0108958D
:105A700097FB092E07260AD077FD04D0E5DF06D074
:105A800000201AF4709561957F4F0895F6F7909570
:105A900081959F4F0895A1E21A2EAA1BBB1BFD0101
:105AA0000DC0AA1FBB1FEE1FFF1FA217B307E407FD
:105AB000F50720F0A21BB30BE40BF50B661F771F55
:105AC000881F991F1A9469F7609570958095909535
:105AD0009B01AC01BD01CF0108952F923F924F92DF
